{
  "_format": "hh-sol-artifact-1",
  "contractName": "ActivateWinner",
  "sourceName": "contracts/ActivateWinner.sol",
  "abi": [
    {
      "inputs": [],
      "name": "activateAttempt",
      "outputs": [],
      "stateMutability": "nonpayable",
      "type": "function"
    },
    {
      "inputs": [],
      "name": "emitWinnerAddress",
      "outputs": [
        {
          "internalType": "address",
          "name": "",
          "type": "address"
        }
      ],
      "stateMutability": "view",
      "type": "function"
    }
  ],
  "bytecode": "0x608060405273f0286f55949e21e102331e81b912ade392eed8ef6000806101000a81548173ffffffffffffffffffffffffffffffffffffffff021916908373ffffffffffffffffffffffffffffffffffffffff16021790555034801561006457600080fd5b5061019b806100746000396000f3fe608060405234801561001057600080fd5b50600436106100365760003560e01c80638dad72061461003b5780639a099e3f14610045575b600080fd5b610043610063565b005b61004d6100e5565b60405161005a919061014a565b60405180910390f35b60008054906101000a900473ffffffffffffffffffffffffffffffffffffffff1673ffffffffffffffffffffffffffffffffffffffff1663732b7a8d6040518163ffffffff1660e01b8152600401600060405180830381600087803b1580156100cb57600080fd5b505af11580156100df573d6000803e3d6000fd5b50505050565b60008054906101000a900473ffffffffffffffffffffffffffffffffffffffff1681565b600073ffffffffffffffffffffffffffffffffffffffff82169050919050565b600061013482610109565b9050919050565b61014481610129565b82525050565b600060208201905061015f600083018461013b565b9291505056fea2646970667358221220cb0bcf22673daf47a0b2c6a4be5180a49c337349b19cbcdc6b1e30587c589afa64736f6c63430008180033",
  "linkReferences": {},
  "deployedLinkReferences": {}
}